:020000040800F2
:100000000050002091120008211200082712000859
:100010002D120008331200083912000800000000F9
:100020000000000000000000000000003F12000877
:100030004B1200080000000057120008631200086D
:10004000D9120008D9120008D9120008D9120008E4
:10005000D9120008D9120008D9120008D9120008D4
:10006000D9120008D9120008D9120008D9120008C4
:10007000D9120008D9120008D9120008D9120008B4
:10008000D9120008D9120008D9120008D9120008A4
:10009000D9120008D9120008D9120008D912000894
:1000A000D9120008D9120008D9120008D912000884
:1000B00071120008D9120008D9120008D9120008DC
:1000C000D9120008D9120008D9120008D912000864
:1000D000D9120008D9120008D9120008D912000854
:1000E000D9120008D9120008D91200080000000037
:1000F0000000000000000000000000000000000000
:0C01000000000000000000005FF808F1A3
:10010C0010B5054C237833B9044B13B10448AFF345
:10011C0000800123237010BD34000020000000007B
:10012C005432000808B5034B1BB103490348AFF325
:10013C00008008BD00000000380000205432000888
:10014C0080B483B000AF78607B68042B01DD0023A2
:10015C000DE0094A7B6852F82330012B06D1064A80
:10016C007B68002142F82310012300E0002318468D
:10017C000C37BD4680BC70479000002080B582B023
:10018C0000AF00237B60A9E0594A7B6852F823201A
:10019C0058497B6841F82320574A7B6852F8232042
:1001AC0053497B6841F823207B68032B36D801A286
:1001BC0052F823F0D1010008E7010008FD01000806
:1001CC001302000801214D4801F076FB0346194645
:1001DC00494A7B6842F8231021E00221474801F08C
:1001EC006BFB03461946444A7B6842F8231016E021
:1001FC001021424801F060FB034619463E4A7B68D9
:10020C0042F823100BE001213D4801F055FB034659
:10021C001946394A7B6842F8231000E000BF354A82
:10022C007B6852F8232032497B6851F823309A427C
:10023C0051D12F4A7B6852F823202F497B6851F803
:10024C0023309A4247D12C4A7B6852F823202D49FF
:10025C007B6851F823309A4219D0274A7B6852F8B0
:10026C00232028497B6841F82320234A7B6852F8D5
:10027C002330002B2FD1244A7B684FF4967142F81F
:10028C002310224A7B68012142F8231023E01E4AE6
:10029C007B6852F823305A1E1B497B6841F8232097
:1002AC00194A7B6852F82330002B14D1124A7B6810
:1002BC0052F82330002B09D1144A7B68012142F8F3
:1002CC002310134A7B68012142F823100E4A7B68E5
:1002DC00642142F823107B6801337B607B68032B1D
:1002EC007FF752AF00BF00BF0837BD4680BD00BFCF
:1002FC006000002050000020700000200008014029
:10030C00000C014080000020000000209000002024
:10031C00A000002080B500AF0120FFF711FF0346BD
:10032C00002B05D0034B06221A60034B06221A60E1
:10033C0000BF80BD100000201400002080B500AF6D
:10034C00644B1B68013B052B00F2C28001A252F8E2
:10035C0023F000BF7903000893030008C5030008CD
:10036C00F70300086B04000851040008594B0222E3
:10037C001A60594B1B684FF47A7202FB03F3184650
:10038C0000F0CCFDA4E0554B1B68012B0BD1514B5D
:10039C0004221A60524B1B684FF47A7202FB03F36F
:1003AC00184600F0BBFD142000F0B6FA162000F041
:1003BC008FFBFFF7AFFF8BE0484B1B68012B0BD17A
:1003CC00444B02221A60444B1B684FF47A7202FBB6
:1003DC0003F3184600F0A2FD152000F09DFA14203E
:1003EC0000F076FBFFF796FF72E03C4B1B68012B8D
:1003FC000BD1384B03221A603A4B1B684FF47A72BC
:10040C0002FB03F3184600F089FD162000F084FA75
:10041C00142000F05DFBFFF77DFF0020FFF790FE3E
:10042C000346002B51D02B4B05221A602E4B052274
:10043C001A6042F2107000F071FD4FF47A7000F007
:10044C00A5FD42E00120FFF77BFE0346002B3ED0CA
:10045C00204B01221A60244B01221A6037E01F4BFB
:10046C001B68012B1AD11B4B04221A601C4B1B68F6
:10047C004FF47A7202FB03F3184600F04FFD1A4B4F
:10048C0002221A60144B1B684FF47A7202FB03F3BE
:10049C00184600F05FFD154B0A221A60144B1B68BE
:1004AC00012B08D1114B1B680A33104A13604FF40F
:1004BC007A7000F06BFD162000F00AFB142000F09F
:1004CC002BFA142000F09AFA02E000BF00E000BF03
:1004DC0000BF80BD100000201800002090010020FB
:1004EC001C0000202000002014000020240000200C
:1004FC009801002080B500AF2F4B1B68013B052BEA
:10050C0058D801A252F823F02D0500084705000821
:10051C006F05000897050008C1050008BF05000815
:10052C00254B04221A60254B1B684FF47A7202FB90
:10053C0003F3184600F00EFD3CE0214B1B68012B29
:10054C000BD11D4B04221A601C4B1B684FF47A72A2
:10055C0002FB03F3184600F0FDFC142000F04EFAE9
:10056C0028E0174B1B68012B0BD1134B02221A608E
:10057C00144B1B684FF47A7202FB03F3184600F01D
:10058C00E9FC152000F03AFA14E00D4B1B68012B26
:10059C000BD1094B03221A600B4B1B684FF47A7278
:1005AC0002FB03F3184600F0D5FC162000F026FAE7
:1005BC0000E000BF00BF80BD140000201C00002024
:1005CC0094010020180000202000002080B500AF0E
:1005DC000120FFF7B5FD0346002B05D0034B0A2283
:1005EC001A60034B0A221A6000BF80BD1000002065
:1005FC001400002080B500AF2E4B1B68082B36D0A2
:10060C00082B54DC062B02D0072B10D04FE0294BC3
:10061C0007221A60142000F07FF9162000F0EEF982
:10062C00254B00221A60254B01221A603FE0022064
:10063C00FFF786FD0346002B09D01E4B08221A60DB
:10064C0040F6B83000F06AFC152000F0D7F9FFF73F
:10065C00BDFF1A4B1B68012B05D1142000F05CF96F
:10066C00162000F0CBF9162000F032FA1FE0022021
:10067C00FFF766FD0346002B09D00E4B07221A60CC
:10068C0040F6B83000F04AFC152000F045F9FFF7B1
:10069C009DFF0A4B1B68012B05D1142000F0AEF90D
:1006AC00162000F039F9142000F012FA00BF00BF38
:1006BC0080BD00BF100000208401002090010020AC
:1006CC0080B500AF8E4B1B680A3B052B00F21581E1
:1006DC0001A252F823F000BFFD060008070900082C
:1006EC001F070008AF0700083D080008CB080008EA
:1006FC00834B0C221A604FF4FA7000F00FFC172099
:10070C0000F00AF9172000F079F9172000F0E0F951
:10071C00F3E00120FFF714FD0346002B0BD0784BC0
:10072C000D221A60172000F0F7F8172000F066F978
:10073C00172000F0CDF9734B1B68012B09D1182041
:10074C0000F0EAF8182000F059F94FF4FA7000F0B4
:10075C00E5FB0220FFF7F4FC0346002B0CD06A4BA0
:10076C001B68142B03DD684B01221A6004E0664BF6
:10077C001B680133644A13600320FFF7E1FC034656
:10078C00002B00F0B380604B1B68002B03DC5E4B2E
:10079C0014221A60AAE05C4B1B68013B5A4A136096
:1007AC00A4E00120FFF7CCFC0346002B0BD0544BEC
:1007BC000E221A60172000F0AFF8172000F01EF977
:1007CC00172000F085F94F4B1B68012B09D119201C
:1007DC0000F0A2F8192000F011F94FF4FA7000F0B3
:1007EC009DFB0220FFF7ACFC0346002B0CD0474BC3
:1007FC001B68142B03DD454B01221A6004E0434BAC
:10080C001B680133414A13600320FFF799FC034630
:10081C00002B6DD03D4B1B68002B03DC3B4B142293
:10082C001A6065E0394B1B68013B384A13605FE086
:10083C000120FFF785FC0346002B0BD0304B0F2219
:10084C001A60172000F068F8172000F0D7F817206E
:10085C0000F03EF92B4B1B68012B09D11A2000F03C
:10086C005BF81A2000F0CAF84FF4FA7000F056FB4F
:10087C000220FFF765FC0346002B0CD0244B1B68B1
:10088C00142B03DD224B01221A6004E0204B1B6861
:10089C0001331F4A13600320FFF752FC0346002B61
:1008AC0028D01B4B1B68002B03DC194B14221A603D
:1008BC0020E0174B1B68013B154A13601AE001201E
:1008CC00FFF73EFC0346002B03D00D4B0C221A60A5
:1008DC0012E00220FFF734FC0346002B0CD0084B2F
:1008EC0001221A600B4B01221A6005E000BF04E0E4
:1008FC0000BF02E000BF00E000BF00BF80BD00BF32
:10090C001000002090010020180000201C00002086
:10091C00200000201400002080B582B000AF786069
:10092C007B68143B062B61D801A252F823F000BF60
:10093C00590900088909000871090008A109000873
:10094C00B9090008CF090008E509000801224FF495
:10095C008061284800F0C7FF00220821264800F0DB
:10096C00C2FF43E000224FF48061224800F0BBFF3D
:10097C0001220821204800F0B6FF37E001224FF495
:10098C0080611C4800F0AFFF012208211A4800F0DA
:10099C00AAFF2BE000224FF48061164800F0A3FF61
:1009AC0000220821144800F09EFF1FE04FF48061E4
:1009BC00104800F0B0FF002208210F4800F093FF10
:1009CC0014E008210C4800F0A6FF00224FF48061CF
:1009DC00084800F088FF09E04FF48061054800F0FA
:1009EC009AFF0821044800F096FF00BF00BF0837AB
:1009FC00BD4680BD00080140000C014080B582B0AE
:100A0C0000AF78607B68143B062B5AD801A252F8D1
:100A1C0023F000BF3D0A0008690A0008530A0008C9
:100A2C007F0A0008950A0008A90A0008BD0A0008F8
:100A3C0001222021254800F056FF002210212348D6
:100A4C0000F051FF3DE000222021204800F04BFF38
:100A5C00012210211D4800F046FF32E00122202126
:100A6C001A4800F040FF01221021184800F03BFF0B
:100A7C0027E000222021154800F035FF002210212C
:100A8C00124800F030FF1CE02021104800F043FF1A
:100A9C00002210210D4800F026FF12E00022202138
:100AAC000A4800F020FF1021084800F034FF08E04D
:100ABC002021064800F02FFF1021044800F02BFFE6
:100ACC0000BF00BF0837BD4680BD00BF000C014011
:100ADC0080B582B000AF78607B68172B23D07B6821
:100AEC00172B2DDC7B68142B03D07B68162B0DD0B9
:100AFC0026E001224FF48061134800F0F4FE00223E
:100B0C004FF48071114800F0EEFE19E000224FF412
:100B1C0080610D4800F0E7FE01224FF480710B4814
:100B2C0000F0E1FE0CE000224FF48061064800F07A
:100B3C00DAFE00224FF48071044800F0D4FE00BFAE
:100B4C0000BF0837BD4680BD000C014000080140C5
:100B5C0080B500AF00F0BCFB00F032F800F05EF99D
:100B6C0000F0BCF800F06EF800F02EF9104801F01F
:100B7C0055FB00210F4801F0FBFBFFF7DFFBFFF7F4
:100B8C00B9FCFFF737FDFFF79BFD0B4B1B68022BE6
:100B9C0003D0094B1B68052B05D1084B1A68054B74
:100BAC001B685A6303E0034B1B6800225A63E4E79B
:100BBC00B0000020F80000201000002024000020CD
:100BCC0080B590B000AF07F1180328220021184619
:100BDC0002F032FB3B1D00221A605A609A60DA6008
:100BEC001A610223BB610123BB621023FB62022347
:100BFC007B630023BB634FF46013FB6307F11803A3
:100C0C00184600F0A1FE0346002B01D000F080F93D
:100C1C000F237B600223BB600023FB604FF48063D7
:100C2C003B6100237B613B1D0221184601F00EF94C
:100C3C000346002B01D000F06BF900BF4037BD46D6
:100C4C0080BD000080B586B000AF07F1080300221C
:100C5C001A605A609A60DA603B4600221A605A6049
:100C6C001D4B4FF080421A601B4B4FF6FF125A601F
:100C7C00194B00229A60184B0922DA60164B00229D
:100C8C001A61154B00229A61134801F077FA03465A
:100C9C00002B01D000F03CF94FF48053BB6007F1FE
:100CAC00080319460C4801F0CBFD0346002B01D07C
:100CBC0000F02EF900233B6000237B603B46194675
:100CCC00054802F049F90346002B01D000F020F949
:100CDC0000BF1837BD4680BDB000002080B58EB077
:100CEC0000AF07F1280300221A605A609A60DA609C
:100CFC0007F1200300221A605A603B1D00221A6083
:100D0C005A609A60DA601A615A619A612C4B2D4ACA
:100D1C001A602B4B3F225A60294B00229A60284BB9
:100D2C0040F2E732DA60264B00221A61244B002293
:100D3C009A61234801F022FA0346002B01D000F0FF
:100D4C00E7F84FF48053BB6207F1280319461C489F
:100D5C0001F076FD0346002B01D000F0D9F81848BD
:100D6C0001F0AEFA0346002B01D000F0D1F80023BD
:100D7C003B6200237B6207F120031946104802F006
:100D8C00EBF80346002B01D000F0C2F860237B6027
:100D9C000023BB600023FB6000237B613B1D002212
:100DAC001946074801F08EFC0346002B01D000F0D9
:100DBC00AFF8034800F0B2F900BF3837BD4680BD2C
:100DCC00F80000200004004080B500AF114B124A1F
:100DDC001A60104B4FF4E1325A600E4B00229A60AD
:100DEC000C4B0022DA600B4B00221A61094B0C22CF
:100DFC005A61084B00229A61064B0022DA610548C1
:100E0C0002F01AF90346002B01D000F081F800BF64
:100E1C0080BD00BF400100200044004080B586B07A
:100E2C0000AF07F1080300221A605A609A60DA607A
:100E3C002E4B9B692D4A43F0040393612B4B9B690A
:100E4C0003F004037B607B68284B9B69274A43F0C3
:100E5C0008039361254B9B6903F008033B603B68D7
:100E6C0000224FF48761224800F03DFD00224FF430
:100E7C00A061204800F037FD1323BB600023FB600A
:100E8C0001233B6107F1080319461A4800F090FB57
:100E9C000123BB600023FB6001233B6107F10803C6
:100EAC001946134800F084FB4FF48763BB600123A1
:100EBC00FB6000233B6102237B6107F108031946A9
:100ECC000B4800F075FB4FF4A063BB600123FB6083
:100EDC0000233B6102237B6107F108031946054897
:100EEC0000F066FB00BF1837BD4680BD0010024005
:100EFC00000C01400008014080B582B000AF786062
:100F0C0000F060F8FFF73AF900BF0837BD4680BD26
:100F1C0080B400AF72B600BFFEE7000080B483B0AF
:100F2C0000AF78607B68084A82FB03129210DB17D3
:100F3C00D31A064A1360064B00221A6000BF0C3706
:100F4C00BD4680BC704700BF6766666684010020A2
:100F5C009001002080B483B000AF78607B68084AB1
:100F6C0082FB03129210DB17D31A064A1360064B4E
:100F7C0000221A6000BF0C37BD4680BC704700BF12
:100F8C0067666666880100209401002080B483B0F7
:100F9C0000AF78607B68084A82FB03129210DB1763
:100FAC00D31A064A1360064B00221A6000BF0C3796
:100FBC00BD4680BC704700BF676666668C0100202A
:100FCC009801002080B400AF194B1B68002B0BDD7F
:100FDC00174B1B68013B164A1360154B1B68002B03
:100FEC0002DC144B01221A60134B1B68002B0BDD27
:100FFC00114B1B68013B104A13600F4B1B68002BF5
:10100C0002DC0E4B01221A600D4B1B68002B0BDD12
:10101C000B4B1B68013B0A4A1360094B1B68002BE6
:10102C0002DC084B01221A6000BFBD4680BC704731
:10103C0084010020900100208801002094010020F0
:10104C008C0100209801002080B485B000AF154BB6
:10105C009B69144A43F001039361124B9B6903F0A3
:10106C000103BB60BB680F4BDB690E4A43F0805336
:10107C00D3610C4BDB6903F080537B607B680A4BBC
:10108C005B68FB60FB6823F0E063FB60FB6843F08C
:10109C000073FB60044AFB68536000BF1437BD4605
:1010AC0080BC7047001002400000014080B584B045
:1010BC0000AF78607B681B68B3F1804F14D1154B7F
:1010CC00DB69144A43F00103D361124BDB6903F073
:1010DC000103FB60FB68002200211C2000F031FAA8
:1010EC001C2000F04AFA10E07B681B680A4A934205
:1010FC000BD1084BDB69074A43F00203D361054B64
:10110C00DB6903F00203BB60BB6800BF1037BD4650
:10111C0080BD00BF001002400004004080B588B0C4
:10112C0000AF786007F1100300221A605A609A60D1
:10113C00DA607B681B680F4A934217D10E4B9B6990
:10114C000D4A43F0040393610B4B9B6903F00403BA
:10115C00FB60FB6840233B6102237B610223FB6144
:10116C0007F110031946054800F022FA00BF20379A
:10117C00BD4680BD00040040001002400008014044
:10118C0080B588B000AF786007F1100300221A60B8
:10119C005A609A60DA607B681B681B4A93422FD1B5
:1011AC001A4BDB69194A43F40033D361174BDB69E3
:1011BC0003F40033FB60FB68144B9B69134A43F048
:1011CC0004039361114B9B6903F00403BB60BB6880
:1011DC0004233B6102237B610323FB6107F11003B2
:1011EC0019460B4800F0E4F908233B6100237B61AE
:1011FC000023BB6107F110031946054800F0D8F92C
:10120C0000BF2037BD4680BD0044004000100240A6
:10121C000008014080B400AFFEE780B400AFFEE7E9
:10122C0080B400AFFEE780B400AFFEE780B400AF3F
:10123C00FEE780B400AF00BFBD4680BC704780B4F1
:10124C0000AF00BFBD4680BC704780B400AF00BF8C
:10125C00BD4680BC704780B500AF00F07FF800BF82
:10126C0080BD000080B500AF024801F023F900BF3B
:10127C0080BD00BFB000002080B400AF00BFBD46F1
:10128C0080BC70470C480D490D4A002302E0D4582D
:10129C00C4500433C4188C42F9D30A4A0A4C0023B4
:1012AC0001E013600432A242FBD3FFF7E5FF01F02B
:1012BC009FFFFFF74DFC704700000020340000201A
:1012CC009C32000834000020A0010020FEE7000042
:1012DC0080B500AF084B1B68074A43F0100313603E
:1012EC00032000F023F90F2000F008F8FFF7ACFE04
:1012FC000023184680BD00BF0020024080B582B09C
:10130C0000AF7860124B1A68124B1B7819464FF4D9
:10131C007A73B3FBF1F3B2FBF3F3184600F03BF92D
:10132C000346002B01D001230EE07B680F2B0AD85B
:10133C00002279684FF0FF3000F003F9064A7B6811
:10134C001360002300E0012318460837BD4680BD1A
:10135C0028000020300000202C00002080B400AFBA
:10136C00054B1B781A46054B1B681344034A136044
:10137C0000BFBD4680BC7047300000209C0100209F
:10138C0080B400AF024B1B681846BD4680BC70474A
:10139C009C01002080B485B000AF78607B6803F0BE
:1013AC000703FB600C4BDB68BB60BA684FF6FF03AE
:1013BC001340BB60FB681A02BB68134343F0BF6366
:1013CC0043F40033BB60044ABB68D36000BF1437DE
:1013DC00BD4680BC704700BF00ED00E080B400AF9C
:1013EC00044BDB681B0A03F007031846BD4680BCA0
:1013FC00704700BF00ED00E080B483B000AF03463F
:10140C00FB7197F90730002B0BDBFB7903F01F0204
:10141C00064997F907305B09012000FA02F241F8FE
:10142C00232000BF0C37BD4680BC704700E100E0B4
:10143C0080B483B000AF03463960FB7197F9073075
:10144C00002B0ADB3B68DAB20C4997F90730120122
:10145C00D2B20B4483F800230AE03B68DAB20849A5
:10146C00FB7903F00F03043B1201D2B20B441A7642
:10147C0000BF0C37BD4680BC704700BF00E100E0E8
:10148C0000ED00E080B489B000AFF860B9607A601C
:10149C00FB6803F00703FB61FB69C3F10703042B33
:1014AC0028BF0423BB61FB690433062B02D9FB69FB
:1014BC00033B00E000237B614FF0FF32BB6902FA73
:1014CC0003F3DA43BB681A407B699A404FF0FF3153
:1014DC007B6901FA03F3D9437B680B40134318462D
:1014EC002437BD4680BC704780B582B000AF7860B1
:1014FC007B68013BB3F1807F01D301230FE00A4AE3
:10150C007B68013B53600F214FF0FF30FFF790FFDA
:10151C00054B00229A60044B07221A6000231846E0
:10152C000837BD4680BD00BF10E000E080B582B03A
:10153C0000AF78607868FFF72DFF00BF0837BD4615
:10154C0080BD80B586B000AF0346B9607A60FB738E
:10155C0000237B61FFF742FF78617A68B96878698C
:10156C00FFF790FF024697F90F3011461846FFF728
:10157C005FFF00BF1837BD4680BD80B582B000AF9D
:10158C000346FB7197F907301846FFF735FF00BF8C
:10159C000837BD4680BD80B582B000AF78607868F2
:1015AC00FFF7A2FF034618460837BD4680BD000072
:1015BC0080B48BB000AF7860396000237B6200236D
:1015CC003B6269E101227B6A02FA03F3FB613B682F
:1015DC001B68FA691340BB61BA69FB699A4240F017
:1015EC0058813B685B689A4A93425ED0984A934212
:1015FC0075D8984A934258D0964A93426FD8964AD7
:10160C00934252D0944A934269D8944A93424CD014
:10161C00924A934263D8924A934246D0904A93425C
:10162C005DD8122B2AD8122B59D801A252F823F0CC
:10163C00B716000891160008A3160008E516000856
:10164C00EB160008EB160008EB160008EB1600086A
:10165C00EB160008EB160008EB160008EB1600085A
:10166C00EB160008EB160008EB160008EB1600084A
:10167C00EB16000899160008AD160008794A93423B
:10168C0013D02CE03B68DB683B6229E03B68DB68ED
:10169C0004333B6224E03B68DB6808333B621FE0A9
:1016AC003B68DB680C333B621AE03B689B68002BA1
:1016BC0002D104233B6213E03B689B68012B05D1EC
:1016CC0008233B627B68FA691A6109E008233B62D4
:1016DC007B68FA695A6103E000233B6200E000BFBB
:1016EC00BB69FF2B01D87B6801E07B6804337B610D
:1016FC00BB69FF2B02D87B6A9B0002E07B6A083B2C
:10170C009B003B617B691A680F213B6901FA03F36B
:10171C00DB431A40396A3B6901FA03F31A437B69CC
:10172C001A603B685B6803F08053002B00F0B180BB
:10173C004D4B9B694C4A43F0010393614A4B9B69A7
:10174C0003F00103BB60BB68484A7B6A9B08023309
:10175C0052F82330FB607B6A03F003039B000F22DB
:10176C0002FA03F3DB43FA681340FB607B68404AE0
:10177C00934213D07B683F4A93420DD07B683E4A1C
:10178C00934207D07B683D4A934201D1032306E084
:10179C00042304E0022302E0012300E000237A6A20
:1017AC0002F0030292009340FA681343FB602F4946
:1017BC007B6A9B080233FA6841F823203B685B681C
:1017CC0003F48033002B06D02D4B1A682C49BB69CF
:1017DC0013430B6006E02A4B1A68BB69DB432849AC
:1017EC0013400B603B685B6803F40033002B06D09E
:1017FC00234B5A682249BB6913434B6006E0204BCC
:10180C005A68BB69DB431E4913404B603B685B68FD
:10181C0003F48013002B06D0194B9A681849BB6946
:10182C0013438B6006E0164B9A68BB69DB43144983
:10183C0013408B603B685B6803F40013002B21D0D2
:10184C000F4BDA680E49BB691343CB6021E000BF34
:10185C000000321000003110000022100000211096
:10186C000000121000001110001002400000014096
:10187C0000080140000C0140001001400014014020
:10188C00000401400B4BDA68BB69DB430949134088
:10189C00CB607B6A01337B623B681A687B6A22FAF5
:1018AC0003F3002B7FF48EAE00BF00BF2C37BD4678
:1018BC0080BC70470004014080B485B000AF7860F4
:1018CC000B467B807B689A687B881340002B02D088
:1018DC000123FB7301E00023FB73FB7B18461437D9
:1018EC00BD4680BC704780B483B000AF78600B46B7
:1018FC007B8013467B707B78002B03D07A887B68C7
:10190C001A6103E07B881A047B681A6100BF0C37EC
:10191C00BD4680BC704780B485B000AF78600B4684
:10192C007B807B68DB68FB607A88FB6813401A0459
:10193C00FB68D9437B880B401A437B681A6100BF54
:10194C001437BD4680BC704780B586B000AF786058
:10195C007B68002B01D1012372E27B681B6803F0CA
:10196C000103002B00F08780924B5B6803F00C03A3
:10197C00042B0CD08F4B5B6803F00C03082B12D19B
:10198C008C4B5B6803F48033B3F5803F0BD1894BF0
:10199C001B6803F40033002B6CD07B685B68002B56
:1019AC0068D101234CE27B685B68B3F5803F06D1BC
:1019BC00804B1B687F4A43F4803313602EE07B68B6
:1019CC005B68002B0CD17B4B1B687A4A23F4803369
:1019DC001360784B1B68774A23F4802313601DE057
:1019EC007B685B68B3F5A02F0CD1724B1B68714AF6
:1019FC0043F4802313606F4B1B686E4A43F48033AF
:101A0C0013600BE06B4B1B686A4A23F48033136042
:101A1C00684B1B68674A23F4802313607B685B6800
:101A2C00002B13D0FFF7ACFC386108E0FFF7A8FCE3
:101A3C0002463B69D31A642B01D9032300E25D4BA8
:101A4C001B6803F40033002BF0D014E0FFF798FC74
:101A5C00386108E0FFF794FC02463B69D31A642B0B
:101A6C0001D90323ECE1534B1B6803F40033002B27
:101A7C00F0D100E000BF7B681B6803F00203002B71
:101A8C0063D04C4B5B6803F00C03002B0BD0494B21
:101A9C005B6803F00C03082B1CD1464B5B6803F40A
:101AAC008033002B16D1434B1B6803F00203002B31
:101ABC0005D07B681B69012B01D00123C0E13D4B94
:101ACC001B6823F0F8027B685B69DB003949134320
:101ADC000B603AE07B681B69002B20D0364B01224F
:101AEC001A60FFF74DFC386108E0FFF749FC02462D
:101AFC003B69D31A022B01D90323A1E12D4B1B689F
:101B0C0003F00203002BF0D02A4B1B6823F0F802E1
:101B1C007B685B69DB00274913430B6015E0264BA0
:101B2C0000221A60FFF72CFC386108E0FFF728FC54
:101B3C0002463B69D31A022B01D9032380E11D4BCA
:101B4C001B6803F00203002BF0D17B681B6803F0C9
:101B5C000803002B3AD07B689B69002B19D0174BDC
:101B6C0001221A60FFF70CFC386108E0FFF708FC53
:101B7C0002463B69D31A022B01D9032360E10D4BBA
:101B8C005B6A03F00203002BF0D0012000F0D8FABE
:101B9C001CE00A4B00221A60FFF7F2FB38610FE0E1
:101BAC00FFF7EEFB02463B69D31A022B08D903233D
:101BBC0046E100BF00100240000042428004424255
:101BCC00924B5B6A03F00203002BE9D17B681B6824
:101BDC0003F00403002B00F0A6800023FB758B4B55
:101BEC00DB6903F08053002B0DD1884BDB69874AEE
:101BFC0043F08053D361854BDB6903F08053BB60AA
:101C0C00BB680123FB75824B1B6803F48073002BAC
:101C1C0018D17F4B1B687E4A43F480731360FFF727
:101C2C00AFFB386108E0FFF7ABFB02463B69D31A08
:101C3C00642B01D9032303E1754B1B6803F48073F8
:101C4C00002BF0D07B68DB68012B06D16F4B1B6A35
:101C5C006E4A43F0010313622DE07B68DB68002BB6
:101C6C000CD16A4B1B6A694A23F001031362674B60
:101C7C001B6A664A23F0040313621CE07B68DB6872
:101C8C00052B0CD1614B1B6A604A43F004031362B1
:101C9C005E4B1B6A5D4A43F0010313620BE05B4B26
:101CAC001B6A5A4A23F001031362584B1B6A574AAA
:101CBC0023F0040313627B68DB68002B15D0FFF75D
:101CCC005FFB38610AE0FFF75BFB02463B69D31A06
:101CDC0041F28832934201D90323B1E04B4B1B6A8A
:101CEC0003F00203002BEED014E0FFF749FB386140
:101CFC000AE0FFF745FB02463B69D31A41F28832F2
:101D0C00934201D903239BE0404B1B6A03F002036F
:101D1C00002BEED1FB7D012B05D13C4BDB693B4A03
:101D2C0023F08053D3617B68DB69002B00F0878044
:101D3C00364B5B6803F00C03082B61D07B68DB69C6
:101D4C00022B46D1334B00221A60FFF719FB386186
:101D5C0008E0FFF715FB02463B69D31A022B01D9A9
:101D6C0003236DE0294B1B6803F00073002BF0D1AB
:101D7C007B681B6AB3F5803F08D1244B5B6823F466
:101D8C0000327B689B68214913434B601F4B5B6897
:101D9C0023F474127B68196A7B685B6A0B431B49DA
:101DAC0013434B601B4B01221A60FFF7E9FA3861B1
:101DBC0008E0FFF7E5FA02463B69D31A022B01D97A
:101DCC0003233DE0114B1B6803F00073002BF0D094
:101DDC0035E0104B00221A60FFF7D2FA386108E0A8
:101DEC00FFF7CEFA02463B69D31A022B01D9032323
:101DFC0026E0064B1B6803F00073002BF0D11EE0AD
:101E0C007B68DB69012B07D1012319E0001002402C
:101E1C0000700040600042420B4B5B68FB60FB684B
:101E2C0003F480327B681B6A9A4206D1FB6803F488
:101E3C0070127B685B6A9A4201D0012300E0002398
:101E4C0018461837BD4680BD0010024080B584B0DE
:101E5C0000AF786039607B68002B01D10123D0E0A2
:101E6C006A4B1B6803F007033A689A4210D9674B18
:101E7C001B6823F0070265493B6813430B60634BF7
:101E8C001B6803F007033A689A4201D00123B8E0BB
:101E9C007B681B6803F00203002B20D07B681B6857
:101EAC0003F00403002B05D0594B5B68584A43F4EC
:101EBC00E06353607B681B6803F00803002B05D0BC
:101ECC00534B5B68524A43F460535360504B5B680E
:101EDC0023F0F0027B689B684D4913434B607B6891
:101EEC001B6803F00103002B40D07B685B68012B5F
:101EFC0007D1474B1B6803F40033002B15D101238A
:101F0C007FE07B685B68022B07D1414B1B6803F0B9
:101F1C000073002B09D1012373E03D4B1B6803F0C8
:101F2C000203002B01D101236BE0394B5B6823F0DA
:101F3C0003027B685B68364913434B60FFF720FA5A
:101F4C00F8600AE0FFF71CFA0246FB68D31A41F26C
:101F5C008832934201D9032353E02D4B5B6803F085
:101F6C000C027B685B689B009A42EBD1274B1B6889
:101F7C0003F007033A689A4210D2244B1B6823F0F3
:101F8C00070222493B6813430B60204B1B6803F08C
:101F9C0007033A689A4201D0012332E07B681B6840
:101FAC0003F00403002B08D0194B5B6823F4E062A8
:101FBC007B68DB68164913434B607B681B6803F036
:101FCC000803002B09D0124B5B6823F460527B682A
:101FDC001B69DB000E4913434B6000F021F80246ED
:101FEC000B4B5B681B0903F00F030A49CB5C22FA0D
:101FFC0003F3094A1360094B1B681846FFF77EF977
:10200C00002318461037BD4680BD00BF002002409B
:10201C00001002407C320008280000202C00002018
:10202C0090B48AB000AF294B3C1D0FCB84E80F0055
:10203C0040F201233B800023FB610023BB610023A2
:10204C007B6200237B6100233B62214B5B68FB615D
:10205C00FB6903F00C03042B02D0082B03D02BE0FC
:10206C001C4B3B622BE0FB699B0C03F00F032833EA
:10207C003B4413F8243C7B61FB6903F48033002B55
:10208C0012D0134B5B685B0C03F0010328333B4409
:10209C0013F8283CBB617B690E4A03FB02F2BB6957
:1020AC00B2FBF3F37B6204E07B690B4A02FB03F3A4
:1020BC007B627B6A3B6202E0064B3B6200BF3B6A81
:1020CC0018462837BD4690BC704700BF6C320008DC
:1020DC000010024000127A0000093D0080B400AFED
:1020EC00024B1B681846BD4680BC70472800002078
:1020FC0080B500AFFFF7F2FF0246054B5B681B0A89
:10210C0003F007030349CB5C22FA03F3184680BDA6
:10211C00001002408C32000880B500AFFFF7DEFFE4
:10212C000246054B5B68DB0A03F007030349CB5CF3
:10213C0022FA03F3184680BD001002408C320008CE
:10214C0080B485B000AF78600A4B1B680A4AA2FBCA
:10215C0003235B0A7A6802FB03F3FB6000BFFB6896
:10216C005A1EFA60002BF9D100BF00BF1437BD46D0
:10217C0080BC704728000020D34D621080B582B01F
:10218C0000AF78607B68002B01D1012341E07B68B4
:10219C0093F83D30DBB2002B06D17B68002283F82C
:1021AC003C207868FEF782FF7B68022283F83D2092
:1021BC007B681A687B6804331946104600F028FCCB
:1021CC007B68012283F846207B68012283F83E203D
:1021DC007B68012283F83F207B68012283F8402032
:1021EC007B68012283F841207B68012283F842201E
:1021FC007B68012283F843207B68012283F844200A
:10220C007B68012283F845207B68012283F83D20FE
:10221C00002318460837BD4680BD000080B485B049
:10222C0000AF78607B6893F83D30DBB2012B01D0B6
:10223C0001233AE07B68022283F83D207B681B680F
:10224C00DA687B681B6842F00102DA607B681B6805
:10225C00184A93420ED07B681B68B3F1804F09D0AB
:10226C007B681B68144A934204D07B681B68134A32
:10227C00934211D17B681B689B6803F00703FB60DA
:10228C00FB68062B10D07B681B681A687B681B6880
:10229C0042F001021A6007E07B681B681A687B68D1
:1022AC001B6842F001021A60002318461437BD4621
:1022BC0080BC7047002C0140000400400008004026
:1022CC0080B582B000AF78607B68002B01D1012310
:1022DC0041E07B6893F83D30DBB2002B06D17B6884
:1022EC00002283F83C20786800F039F87B680222E1
:1022FC0083F83D207B681A687B68043319461046C6
:10230C0000F086FB7B68012283F846207B68012263
:10231C0083F83E207B68012283F83F207B680122F2
:10232C0083F840207B68012283F841207B680122DE
:10233C0083F842207B68012283F843207B680122CA
:10234C0083F844207B68012283F845207B680122B6
:10235C0083F83D20002318460837BD4680BD80B465
:10236C0083B000AF786000BF0C37BD4680BC7047AF
:10237C0080B584B000AF786039603B68002B09D120
:10238C007B6893F83E30DBB2012B14BF0123002392
:10239C00DBB222E03B68042B09D17B6893F83F3019
:1023AC00DBB2012B14BF01230023DBB215E03B6829
:1023BC00082B09D17B6893F84030DBB2012B14BF9A
:1023CC0001230023DBB208E07B6893F84130DBB2D9
:1023DC00012B14BF01230023DBB2002B01D00123FE
:1023EC005EE03B68002B04D17B68022283F83E2020
:1023FC0013E03B68042B04D17B68022283F83F2056
:10240C000BE03B68082B04D17B68022283F8402048
:10241C0003E07B68022283F841207B681B68012261
:10242C003968184600F074FD7B681B681E4A93429D
:10243C0007D17B681B685A6C7B681B6842F40042AE
:10244C005A647B681B68184A93420ED07B681B68E1
:10245C00B3F1804F09D07B681B68144A934204D0B7
:10246C007B681B68124A934211D17B681B689B687E
:10247C0003F00703FB60FB68062B10D07B681B681E
:10248C001A687B681B6842F001021A6007E07B68DF
:10249C001B681A687B681B6842F001021A600023F3
:1024AC0018461037BD4680BD002C0140000400408A
:1024BC000008004080B582B000AF78607B681B6874
:1024CC001B6903F00203022B22D17B681B68DB68BB
:1024DC0003F00203022B1BD17B681B686FF0020216
:1024EC001A617B6801221A777B681B689B6903F071
:1024FC000303002B03D0786800F06FFA05E07868CE
:10250C0000F062FA786800F071FA7B6800221A77A2
:10251C007B681B681B6903F00403042B22D17B68C6
:10252C001B68DB6803F00403042B1BD17B681B685E
:10253C006FF004021A617B6802221A777B681B68B1
:10254C009B6903F44073002B03D0786800F045FAC4
:10255C0005E0786800F038FA786800F047FA7B6894
:10256C0000221A777B681B681B6903F00803082B91
:10257C0022D17B681B68DB6803F00803082B1BD196
:10258C007B681B686FF008021A617B6804221A775B
:10259C007B681B68DB6903F00303002B03D07868AE
:1025AC0000F01BFA05E0786800F00EFA786800F08D
:1025BC001DFA7B6800221A777B681B681B6903F085
:1025CC001003102B22D17B681B68DB6803F010030F
:1025DC00102B1BD17B681B686FF010021A617B6893
:1025EC0008221A777B681B68DB6903F44073002BA5
:1025FC0003D0786800F0F1F905E0786800F0E4F9B0
:10260C00786800F0F3F97B6800221A777B681B6806
:10261C001B6903F00103012B0ED17B681B68DB687F
:10262C0003F00103012B07D17B681B686FF00102DB
:10263C001A617868FEF760FC7B681B681B6903F005
:10264C008003802B0ED17B681B68DB6803F0800352
:10265C00802B07D17B681B686FF080021A61786849
:10266C0000F0E1FC7B681B681B6903F04003402B06
:10267C000ED17B681B68DB6803F04003402B07D14D
:10268C007B681B686FF040021A61786800F0B7F93C
:10269C007B681B681B6903F02003202B0ED17B6821
:1026AC001B68DB6803F02003202B07D17B681B68B9
:1026BC006FF020021A61786800F0ACFC00BF08379C
:1026CC00BD4680BD80B584B000AFF860B9607A605B
:1026DC00FB6893F83C30012B01D10223ACE0FB6882
:1026EC00012283F83C207B680C2B00F29F8001A216
:1026FC0052F823F03527000839280008392800083B
:10270C0039280008752700083928000839280008DE
:10271C0039280008B727000839280008392800088C
:10272C0039280008F7270008FB681B68B9681846A9
:10273C0000F0D0F9FB681B689A69FB681B6842F0D3
:10274C0008029A61FB681B689A69FB681B6822F097
:10275C0004029A61FB681B689969BB681A69FB687B
:10276C001B680A439A6162E0FB681B68B9681846EB
:10277C0000F016FAFB681B689A69FB681B6842F448
:10278C0000629A61FB681B689A69FB681B6822F4FB
:10279C0080629A61FB681B689969BB681B691A02A5
:1027AC00FB681B680A439A6141E0FB681B68B968C7
:1027BC00184600F05FFAFB681B68DA69FB681B6857
:1027CC0042F00802DA61FB681B68DA69FB681B6877
:1027DC0022F00402DA61FB681B68D969BB681A69CC
:1027EC00FB681B680A43DA6121E0FB681B68B96867
:1027FC00184600F0A9FAFB681B68DA69FB681B68CD
:10280C0042F40062DA61FB681B68DA69FB681B68DA
:10281C0022F48062DA61FB681B68D969BB681B69AA
:10282C001A02FB681B680A43DA6100E000BFFB6810
:10283C00002283F83C20002318461037BD4680BD8B
:10284C0080B584B000AF786039607B6893F83C3019
:10285C00012B01D10223B3E07B68012283F83C20D9
:10286C007B68022283F83D207B681B689B68FB60B9
:10287C00FB6823F07703FB60FB6823F47F43FB606A
:10288C007B681B68FA689A603B681B68B3F5005F4D
:10289C003ED0B3F5005F00F28780B3F5805F00F0A7
:1028AC008580B3F5805F7FD8702B1AD0702B7BD8C6
:1028BC00602B50D0602B77D8502B3CD0502B73D83A
:1028CC00402B58D0402B6FD8302B64D0302B6BD88A
:1028DC00202B60D0202B67D8002B5CD0102B5AD02B
:1028EC0062E07B6818683B6899683B685A683B688B
:1028FC00DB6800F0EEFA7B681B689B68FB60FB688A
:10290C0043F07703FB607B681B68FA689A604EE0C3
:10291C007B6818683B6899683B685A683B68DB6859
:10292C0000F0D7FA7B681B689A687B681B6842F4D6
:10293C0080429A603BE07B6818683B6859683B684A
:10294C00DB681A4600F04EFA7B681B68502118466B
:10295C0000F0A5FA2BE07B6818683B6859683B6867
:10296C00DB681A4600F06CFA7B681B68602118461D
:10297C0000F095FA1BE07B6818683B6859683B6867
:10298C00DB681A4600F02EFA7B681B68402118465B
:10299C0000F085FA0BE07B681A683B681B681946E7
:1029AC00104600F07CFA02E000BF00E000BF7B683C
:1029BC00012283F83D207B68002283F83C20002311
:1029CC0018461037BD4680BD80B483B000AF786028
:1029DC0000BF0C37BD4680BC704780B483B000AFDD
:1029EC00786000BF0C37BD4680BC704780B483B0A4
:1029FC0000AF786000BF0C37BD4680BC704780B418
:102A0C0083B000AF786000BF0C37BD4680BC704708
:102A1C0080B485B000AF786039607B681B68FB6060
:102A2C007B68294A93420BD07B68B3F1804F07D067
:102A3C007B68264A934203D07B68254A934208D18F
:102A4C00FB6823F07003FB603B685B68FA68134318
:102A5C00FB607B681C4A93420BD07B68B3F1804FC0
:102A6C0007D07B68194A934203D07B68184A93427B
:102A7C0008D1FB6823F44073FB603B68DB68FA68A1
:102A8C001343FB60FB6823F080023B685B691343D4
:102A9C00FB607B68FA681A603B689A687B68DA624C
:102AAC003B681A687B689A627B68074A934203D139
:102ABC003B681A697B681A637B6801225A6100BF04
:102ACC001437BD4680BC7047002C01400004004008
:102ADC000008004080B487B000AF786039607B6834
:102AEC001B6A23F001027B681A627B681B6A7B619C
:102AFC007B685B683B617B689B69FB60FB6823F0D0
:102B0C007003FB60FB6823F00303FB603B681B68EE
:102B1C00FA681343FB607B6923F002037B613B681B
:102B2C009B687A6913437B617B681C4A93420CD186
:102B3C007B6923F008037B613B68DB687A6913438C
:102B4C007B617B6923F004037B617B68134A9342AE
:102B5C0011D13B6923F480733B613B6923F400730F
:102B6C003B613B685B693A6913433B613B689B691A
:102B7C003A6913433B617B683A695A607B68FA682F
:102B8C009A613B685A687B685A637B687A691A62F7
:102B9C0000BF1C37BD4680BC704700BF002C0140F5
:102BAC0080B487B000AF786039607B681B6A23F013
:102BBC0010027B681A627B681B6A7B617B685B68AE
:102BCC003B617B689B69FB60FB6823F4E043FB6023
:102BDC00FB6823F44073FB603B681B681B02FA68BC
:102BEC001343FB607B6923F020037B613B689B688C
:102BFC001B017A6913437B617B681D4A93420DD19B
:102C0C007B6923F080037B613B68DB681B017A697D
:102C1C0013437B617B6923F040037B617B68144A1F
:102C2C00934213D13B6923F480633B613B6923F4EA
:102C3C0000633B613B685B699B003A6913433B61F2
:102C4C003B689B699B003A6913433B617B683A691B
:102C5C005A607B68FA689A613B685A687B689A6329
:102C6C007B687A691A6200BF1C37BD4680BC70470E
:102C7C00002C014080B487B000AF786039607B686D
:102C8C001B6A23F480727B681A627B681B6A7B6107
:102C9C007B685B683B617B68DB69FB60FB6823F0EE
:102CAC007003FB60FB6823F00303FB603B681B684D
:102CBC00FA681343FB607B6923F400737B613B6808
:102CCC009B681B027A6913437B617B681D4A9342A4
:102CDC000DD17B6923F400637B613B68DB681B02CD
:102CEC007A6913437B617B6923F480637B617B6826
:102CFC00144A934213D13B6923F480533B613B69E3
:102D0C0023F400533B613B685B691B013A69134335
:102D1C003B613B689B691B013A6913433B617B68D0
:102D2C003A695A607B68FA68DA613B685A687B6872
:102D3C00DA637B687A691A6200BF1C37BD4680BCB7
:102D4C00704700BF002C014080B487B000AF7860A2
:102D5C0039607B681B6A23F480527B681A627B683B
:102D6C001B6A3B617B685B687B617B68DB69FB6032
:102D7C00FB6823F4E043FB60FB6823F44073FB60C7
:102D8C003B681B681B02FA681343FB603B6923F426
:102D9C0000533B613B689B681B033A6913433B61DF
:102DAC007B680F4A934209D17B6923F480437B6192
:102DBC003B685B699B017A6913437B617B687A6929
:102DCC005A607B68FA68DA613B685A687B681A64F7
:102DDC007B683A691A6200BF1C37BD4680BC7047DD
:102DEC00002C014080B487B000AFF860B9607A6005
:102DFC00FB681B6A7B61FB681B6A23F00102FB68A2
:102E0C001A62FB689B693B613B6923F0F0033B61F1
:102E1C007B681B013A6913433B617B6923F00A030E
:102E2C007B617A69BB6813437B61FB683A699A6181
:102E3C00FB687A691A6200BF1C37BD4680BC7047BC
:102E4C0080B487B000AFF860B9607A60FB681B6A29
:102E5C0023F01002FB681A62FB689B697B61FB68BC
:102E6C001B6A3B617B6923F470437B617B681B03AA
:102E7C007A6913437B613B6923F0A0033B61BB6818
:102E8C001B013A6913433B61FB687A699A61FB68E1
:102E9C003A691A6200BF1C37BD4680BC704780B4CB
:102EAC0085B000AF786039607B689B68FB60FB681D
:102EBC0023F07003FB603A68FB68134343F007038D
:102ECC00FB607B68FA689A6000BF1437BD4680BC13
:102EDC00704780B487B000AFF860B9607A603B602F
:102EEC00FB689B687B617B6923F47F437B613B6858
:102EFC001A027B681A43BB6813437A6913437B61DC
:102F0C00FB687A699A6000BF1C37BD4680BC70476D
:102F1C0080B487B000AFF860B9607A60BB6803F02A
:102F2C001F03012202FA03F37B61FB681A6A7B69B7
:102F3C00DB431A40FB681A62FB681A6ABB6803F031
:102F4C001F03796801FA03F31A43FB681A6200BF86
:102F5C001C37BD4680BC704780B485B000AF78602C
:102F6C0039607B6893F83C30012B01D1022346E099
:102F7C007B68012283F83C207B68022283F83D2089
:102F8C007B681B685B68FB607B681B689B68BB602D
:102F9C00FB6823F07003FB603B681B68FA68134303
:102FAC00FB607B681B68FA685A607B681B68164A72
:102FBC0093420ED07B681B68B3F1804F09D07B68BD
:102FCC001B68124A934204D07B681B68104A9342D8
:102FDC000CD1BB6823F08003BB603B685B68BA68AC
:102FEC001343BB607B681B68BA689A607B680122DC
:102FFC0083F83D207B68002283F83C200023184690
:10300C001437BD4680BC7047002C014000040040C2
:10301C000008004080B483B000AF786000BF0C376C
:10302C00BD4680BC704780B483B000AF786000BFF1
:10303C000C37BD4680BC704780B582B000AF78605D
:10304C007B68002B01D101233FE07B6893F83D3076
:10305C00DBB2002B06D17B68002283F83C20786819
:10306C00FEF78EF87B68242283F83D207B681B6872
:10307C00DA687B681B6822F40052DA60786800F02A
:10308C0029F87B681B681A697B681B6822F49042DC
:10309C001A617B681B685A697B681B6822F02A02DC
:1030AC005A617B681B68DA687B681B6842F40052C3
:1030BC00DA607B6800221A647B68202283F83D204A
:1030CC007B68202283F83E20002318460837BD4633
:1030DC0080BD000080B584B000AF78607B681B6851
:1030EC001B6923F440517B68DA687B681B680A43D0
:1030FC001A617B689A687B681B691A437B685B69F9
:10310C001343BB607B681B68DB6823F4B05323F06C
:10311C000C037A681268B9680B43D3607B681B6830
:10312C005B6923F440717B689A697B681B680A436E
:10313C005A617B681B682C4A934203D1FEF7ECFF63
:10314C00F86002E0FEF7D4FFF860FA6813469B00C3
:10315C0013449A001A447B685B689B00B2FBF3F340
:10316C00224AA2FB03235B091901FA6813469B0050
:10317C0013449A001A447B685B689B00B2FBF3F221
:10318C001A4BA3FB02035B09642000FB03F3D31A65
:10319C001B013233154AA2FB03235B0903F0F00336
:1031AC001944FA6813469B0013449A001A447B682E
:1031BC005B689B00B2FBF3F20C4BA3FB02035B09B5
:1031CC00642000FB03F3D31A1B013233074AA2FB22
:1031DC0003235B0903F00F027B681B680A449A60A7
:1031EC0000BF1037BD4680BD003801401F85EB5134
:1031FC0070B500260C4D0D4C641BA410A64209D1D1
:10320C0000F022F800260A4D0A4C641BA410A642BA
:10321C0005D170BD55F8043B98470136EEE755F8DB
:10322C00043B98470136F2E79432000894320008C8
:10323C00943200089832000803460244934200D1AD
:10324C00704703F8011BF9E7F8B500BFF8BC08BCE0
:10325C009E467047F8B500BFF8BC08BC9E46704748
:10326C0002030405060708090A0B0C0D0E0F1010BB
:10327C00000000000000000001020304060708091A
:08328C00000000000102030430
:0432940031010008FC
:043298000D0100081C
:10329C002C0100002C0100002C0100002C0100006E
:1032AC000100000001000000050000000300000008
:1032BC00020000000A0000000024F40010000000CE
:0432CC0001000000FD
:04000005080012914C
:00000001FF
